:020000040800F2
:10000000005000208D130008E5010008E9010008F8
:10001000ED010008F1010008F501000800000000F2
:10002000000000000000000000000000F9010008CE
:10003000FD010008000000000102000805020008A0
:10004000D5130008D5130008D5130008D5130008F0
:10005000D5130008D5130008D5130008D5130008E0
:10006000D5130008D5130008D5130008D5130008D0
:10007000D5130008D5130008D5130008D5130008C0
:10008000D5130008D5130008D5130008D5130008B0
:10009000D5130008D5130008D5130008D5130008A0
:1000A000D5130008D5130008D5130008D513000890
:1000B000D5130008D5130008D5130008D513000880
:1000C000D5130008D5130008D5130008D513000870
:1000D000D51300080D020008D5130008D513000839
:1000E000D5130008D5130008D51300080000000040
:1000F0000000000000000000000000000000000000
:0C01000000000000000000005FF808F1A3
:10010C0010B5054C237833B9044B13B10448AFF345
:10011C0000800123237010BD0C00002000000000A3
:10012C0034140008084B10B51BB108490848AFF34C
:10013C0000800848036803B910BD074B002BFBD0A7
:10014C00BDE81040184700BF000000001000002060
:10015C00341400080C0000200000000072B6FEE70A
:10016C0000B591B02822002106A801F055F9002312
:10017C0001930293039304930593012206924FF487
:10018C00803307930A9202220D920E934FF4E013E0
:10019C000F9306A800F06AFB08B1FFF7DFFF0F23EF
:1001AC00019302210291002303934FF48062049285
:1001BC00059301A800F09EFD08B1FFF7CFFF11B029
:1001CC005DF804FB08B500F017FBFFF7C9FF01F061
:1001DC003DF801F077F8FEE7FEE700BFFEE700BF51
:1001EC00FEE700BFFEE700BFFEE700BF704700BFA1
:1001FC00704700BF704700BF08B500F00FFB08BD8B
:10020C0008B5024800F090F908BD00BF2C00002092
:10021C0082B00E4B9A6942F001029A619A6902F01F
:10022C0001020092009ADA6942F08052DA61DB69CD
:10023C0003F080530193019B054A536823F0E0635C
:10024C0043F00073536002B0704700BF00100240CF
:10025C0000000140026802F10C0353E8003F23F454
:10026C0090730C3242E800310029F3D1026802F19C
:10027C00140353E8003F23F00103143242E8003129
:10028C000029F3D1036B012B0BD1026802F10C0393
:10029C0053E8003F23F010030C3242E800310029F0
:1002AC00F3D1202380F8423000230363704700BF52
:1002BC0090F84130DBB2212B27D18368B3F5805FF6
:1002CC000BD103694BB9036A02681B88C3F308039B
:1002DC005360036A0233036205E00268036A591C27
:1002EC0001621B785360C38C9BB2013B9BB2C384ED
:1002FC006BB90268D36823F08003D3600268D368BB
:10030C0043F04003D3600020704702207047002068
:10031C00704700BF10B5044601680B6923F44052C6
:10032C00C36813430B61816803691943436919431B
:10033C000068C26822F4B05323F00C030B43C36073
:10034C0021684B6923F44072A36913434B61226803
:10035C00124B9A4202D100F09BFD01E000F088FDA7
:10036C00216800EB800000EB800063689B00B0FB11
:10037C00F3F00B4BA3FB00246409642202FB140270
:10038C0012013232A3FB02235B0903F0F00202EBF1
:10039C00041403F00F0323448B6010BD003801409C
:1003AC001F85EB5170B310B5044690F8413013F033
:1003BC00FF0F04D1002380F8403000F09DFF242370
:1003CC0084F841302268D36823F40053D36020466C
:1003DC00FFF7A0FF2268136923F49043136122688E
:1003EC00536923F02A0353612268D36843F4005302
:1003FC00D36000206064202384F8413084F84230BC
:10040C00606310BD01207047704700BF08B50168DC
:10041C00CB6823F04003CB60202380F84130FFF7FA
:10042C00F3FF002008BD00BF704700BF704700BF3E
:10043C0008B5406A0023C385C384FFF7F7FF08BDE6
:10044C00704700BF00B583B090F84230DBB2222B6E
:10045C0063D18368B3F5805F0BD102694AB9826AB4
:10046C0003685B68C3F308031380836A02338362F7
:10047C0012E0826AB3F5805F02D02BB903691BB915
:10048C0003685B68137004E003685B6803F07F0328
:10049C001370836A01338362C38D9BB2013B9BB2A1
:1004AC00C385002B3BD10268D36823F02003D360B3
:1004BC000268D36823F48073D3600268536923F015
:1004CC0001035361202380F8423000234363036B04
:1004DC00012B1ED100230363026802F10C0353E8C5
:1004EC00003F23F010030C3242E800310029F3D115
:1004FC0003681A6812F0100F06D0002201921A68D5
:10050C0001925B680193019B818DFFF799FF00209D
:10051C0006E0FFF789FF002002E0022000E0002047
:10052C0003B05DF804FB00BF30B583B0044602682D
:10053C001368D068516913F00F0509D113F0200F1F
:10054C0006D010F0200F03D02046FFF77BFF28E1E8
:10055C00002D70D011F0010102D110F4907F6AD0FF
:10056C0013F0010F06D010F4807F03D0626C42F0C0
:10057C000102626413F0040F04D019B1626C42F0F2
:10058C000202626413F0020F04D019B1626C42F0E3
:10059C000402626413F0080F07D010F0200F00D192
:1005AC0019B1626C42F008026264626C002A00F0BD
:1005BC00F88013F0200F05D010F0200F02D0204649
:1005CC00FFF740FF23685B6903F04003626C12F095
:1005DC00080F00D14BB32046FFF73CFE23685B6944
:1005EC0013F0400F1DD0226802F1140353E8003FB2
:1005FC0023F04003143242E800310029F3D1E36BBD
:10060C005BB1694A5A63E06B00F06AFD002800F0A8
:10061C00C880E06B436B9847C3E02046FFF706FFAA
:10062C00BFE02046FFF702FFBBE02046FFF7FEFECF
:10063C0000236364B5E0216B012940F09F8013F027
:10064C00100F00F09B8010F0100F00F0978000232B
:10065C0001931368019353680193019B536913F041
:10066C00400F51D0E26B13685B689BB2002B00F01B
:10067C009880A18D8B4280F09480E3859369202B28
:10068C0037D0226802F10C0353E8003F23F4807347
:10069C000C3242E800310029F3D1226802F1140334
:1006AC0053E8003F23F00103143242E800310029E3
:1006BC00F3D1226802F1140353E8003F23F0400306
:1006CC00143242E800310029F3D1202384F842305F
:1006DC0000232363226802F10C0353E8003F23F04C
:1006EC0010030C3242E800310029F3D1E06B00F02A
:1006FC00D3FC02236363A38DE18D89B2591A89B2AD
:10070C002046FFF79DFE4CE0A38DE18D89B2591A6E
:10071C0089B2E38D9BB2002B43D0002941D02268D3
:10072C0002F10C0353E8003F23F490730C3242E8BF
:10073C0000300028F3D1226802F1140353E8003F83
:10074C0023F00103143242E800300028F3D12023B7
:10075C0084F8423000232363226802F10C0353E82F
:10076C00003F23F010030C3242E800300028F3D194
:10077C00022363632046FFF763FE12E013F0800F41
:10078C0006D010F0800F03D02046FFF791FD08E053
:10079C0013F0400F05D010F0400F02D02046FFF7A9
:1007AC0035FE03B030BD00BF3D04000810B5044653
:1007BC000E4B18784FF47A73B3FBF0F30C4A1068B5
:1007CC00B0FBF3F000F02AFD58B90F2C0BD8002227
:1007DC0021464FF0FF3000F0E1FC064B1C6000207E
:1007EC0010BD012010BD012010BD00BF0400002071
:1007FC00080000200000002008B5074A136843F0E9
:10080C0010031360032000F0B7FC0F20FFF7CEFF9E
:10081C00FFF7FEFC002008BD00200240034A1368CD
:10082C00034909780B441360704700BF280000206F
:10083C0004000020014B1868704700BF28000020FE
:10084C0082B0084B1B68084AA2FB03235B0A00FB1F
:10085C0003F0019000BF019B5A1E0192002BF9D1AD
:10086C0002B0704708000020D34D6210002800F041
:10087C00EC8170B582B00446036813F0010F6BD0A5
:10088C00A84B5B6803F00C03042B0AD0A54B5B68E8
:10089C0003F00C03082B0DD1A24B5B6813F4803FC3
:1008AC0008D0A04B1B6813F4003F55D06368002B95
:1008BC0052D1CCE16368B3F5803F05D1994A1368F6
:1008CC0043F48033136026E063B903F1804303F5EE
:1008DC0004331A6822F480321A601A6822F48022D7
:1008EC001A6018E0B3F5A02F0CD103F18043A3F5E7
:1008FC003C331A6842F480221A601A6842F480323F
:10090C001A6008E0874B1A6822F480321A601A6861
:10091C0022F480221A6063687BB1FFF78BFF0546D7
:10092C0005E0FFF787FF401B642800F292817D4BA6
:10093C001B6813F4003FF4D00EE0FFF77BFF054675
:10094C0005E0FFF777FF401B642800F28481754BAC
:10095C001B6813F4003FF4D1236813F0020F50D03E
:10096C00704B5B6813F00C0F0AD06E4B5B6803F096
:10097C000C03082B16D16B4B5B6813F4803F11D121
:10098C00684B1B6813F0020F03D02369012B40F056
:10099C006481644A136823F0F803616943EAC10374
:1009AC0013602EE02369D3B101225F4B1A60FFF76D
:1009BC0041FF054605E0FFF73DFF401B022800F212
:1009CC004E81584B1B6813F0020FF4D0554A136834
:1009DC0023F0F803616943EAC103136011E00022BC
:1009EC00514B1A60FFF726FF054605E0FFF722FF83
:1009FC00401B022800F235814A4B1B6813F0020F92
:100A0C00F4D1236813F0080F29D0A369ABB10122EC
:100A1C00464B1A60FFF70EFF054605E0FFF70AFF8D
:100A2C00401B022800F21F813E4B5B6A13F0020F41
:100A3C00F4D00120FFF704FF11E000223B4B1A60B9
:100A4C00FFF7F8FE054605E0FFF7F4FE401B022811
:100A5C0000F20B81334B5B6A13F0020FF4D1236865
:100A6C0013F0040F00F08B802E4BDB6913F0805FCA
:100A7C000BD12C4BDA6942F08052DA61DB6903F05E
:100A8C0080530193019B012500E00025284B1B6836
:100A9C0013F4807F13D1264A136843F480731360D8
:100AAC00FFF7C8FE064605E0FFF7C4FE801B64286E
:100ABC0000F2DD801E4B1B6813F4807FF4D0E368DA
:100ACC00012B05D1174A136A43F00103136222E08C
:100ADC0063B903F1804303F504331A6A22F001026F
:100AEC001A621A6A22F004021A6214E0052B09D168
:100AFC000C4B1A6A42F004021A621A6A42F00102A2
:100B0C001A6208E0074B1A6A22F001021A621A6A8A
:100B1C0022F004021A62E368D3B1FFF78BFE06469B
:100B2C0010E000BF0010024000004242800442422C
:100B3C0000700040FFF77EFE801B41F28833984224
:100B4C0000F29780544B1B6A13F0020FF2D010E0A6
:100B5C00FFF770FE064607E0FFF76CFE801B41F2C4
:100B6C008833984200F287804B4B1B6A13F0020FBC
:100B7C00F2D125B1484AD36923F08053D361E3699C
:100B8C00002B7AD0444A526802F00C02082A4CD04E
:100B9C00022B37D10022414B1A60FFF74BFE054662
:100BAC0004E0FFF747FE401B022868D83A4B1B684D
:100BBC0013F0007FF5D1236AB3F5803F06D1364997
:100BCC004B6823F40032A36813434B6032484368EC
:100BDC0023F47411236A626A13430B4343600122AA
:100BEC002E4B1A60FFF726FE044604E0FFF722FEA8
:100BFC00001B022845D8284B1B6813F0007FF5D04A
:100C0C00002047E00022254B1A60FFF713FE044634
:100C1C0004E0FFF70FFE001B022834D81E4B1B68A4
:100C2C0013F0007FF5D1002034E0012B2DD01A4BAE
:100C3C005B6803F48031226A914228D103F470136B
:100C4C00626A934225D0012024E0012070470120E4
:100C5C0020E003201EE003201CE001201AE003200A
:100C6C0018E0032016E0032014E0032012E0032018
:100C7C0010E003200EE003200CE000200AE003202B
:100C8C0008E0032006E0032004E0012002E001203C
:100C9C0000E0002002B070BD001002406000424233
:100CAC000F4B5B6803F00C02082A16D1C3F3834286
:100CBC000C49885C13F4803F0BD0094B5B68C3F381
:100CCC004043094AD25C094B03FB00F0B0FBF2F045
:100CDC007047074B03FB00F070470448704700BF98
:100CEC0000100240501400084C14000800127A0046
:100CFC0000093D00002800F09D8070B50446544B5F
:100D0C001B6803F007038B420BD2514A136823F084
:100D1C0007030B431360136803F00703994240F079
:100D2C008B80236813F0020F17D013F0040F04D03C
:100D3C00484A536843F4E0635360236813F0080F88
:100D4C0004D0444A536843F46053536041484368A9
:100D5C0023F0F002A368134343600D46236813F09D
:100D6C00010F2ED06268012A05D13A4B1B6813F48F
:100D7C00003F0DD162E0022A05D1364B1B6813F0FF
:100D8C00007F05D15CE0334B1B6813F0020F59D088
:100D9C0030494B6823F0030313434B60FFF74AFDC4
:100DAC00064606E0FFF746FD801B41F28833984269
:100DBC004AD8284B5B6803F00C036268B3EB820FD4
:100DCC00F0D1234B1B6803F007039D420AD2204A43
:100DDC00136823F007032B431360136803F0070316
:100DEC009D4233D1236813F0040F06D019494B6888
:100DFC0023F4E062E36813434B60236813F0080F9D
:100E0C0007D0144A536823F46053216943EAC103A1
:100E1C005360FFF745FF0F4B5B68C3F303130E4A98
:100E2C00D35CD8400D4B18600D4B1868FFF7BEFC17
:100E3C00002070BD01207047012070BD012070BDE5
:100E4C00012070BD012070BD032070BD012070BD5C
:100E5C00002002400010024060140008080000202E
:100E6C0000000020014B1868704700BF08000020EC
:100E7C0008B5FFF7F7FF044B5B68C3F30223034A83
:100E8C00D35CD84008BD00BF0010024070140008AD
:100E9C0008B5FFF7E7FF044B5B68C3F3C223034AB3
:100EAC00D35CD84008BD00BF00100240701400088D
:100EBC00F0B583B000263446D4E00122A2401340A2
:100ECC009A4240F0CE804D68122D2DD00BD8022DB9
:100EDC0027D003D85DB3012D1ED035E0032D30D0C3
:100EEC00112D1BD030E0634FBD4220D008D8A7F5A0
:100EFC008017BD421BD007F58037BD4224D116E0C8
:100F0C005D4FBD4213D007F58037BD420FD0A7F51A
:100F1C008017BD4218D10AE0CE6815E0CE680436C1
:100F2C0012E0CE6808360FE0CE680C360CE08D6807
:100F3C004DB1012D02D10261082605E0426108265F
:100F4C0002E0002600E00426FF2B01D8864601E0D3
:100F5C0000F1040EFF2B01D8A20002E0A4F108025C
:100F6C009200DEF800700F25954027EA050506FA79
:100F7C0002F22A43CEF800204A6812F0805F70D04B
:100F8C003E4A956945F001059561926902F00102AE
:100F9C000192019AA708BD1C394A52F8255004F059
:100FAC00030292004FF00F0E0EFA02FE25EA0E0E0F
:100FBC00344DA8420DD005F58065A8420BD005F53F
:100FCC008065A84209D005F58065A84207D10325A4
:100FDC0006E0002504E0012502E0022500E00425DE
:100FEC0005FA02F24EEA02020237254D45F8272097
:100FFC004A6812F4801F05D005F58065AA681A436B
:10100C00AA6004E0204DAA6822EA0302AA604A689A
:10101C0012F4001F04D01C4DEA681A43EA6004E085
:10102C00194DEA6822EA0302EA604A6812F4003FAA
:10103C0004D0154D6A681A436A6004E0124D6A6860
:10104C0022EA03026A604A6812F4803F04D00E4D13
:10105C002A6813432B6004E00B4D2A6822EA030331
:10106C002B6001340B6833FA04F27FF426AF03B023
:10107C00F0BD00BF00002110000031100010024034
:10108C000000014000080140000401400AB1016168
:10109C00704709040161704790F82130DBB2022BD4
:1010AC0006D004238363002380F82030012070478E
:1010BC000268136823F00E0313600268136823F0B0
:1010CC0001031360C16B036C012202FA03F34B6042
:1010DC0080F82120002380F820301846704700BF8C
:1010EC0008B590F82130DBB2022B03D004238363C4
:1010FC00012008BD0268136823F00E031360026818
:10110C00136823F0010313600368194A934211D04A
:10111C001432934210D0143293420FD014329342B3
:10112C000FD0143293420FD0143293420FD14FF49C
:10113C0080120EE001220CE010220AE04FF48072C3
:10114C0007E04FF4805204E04FF4803201E04FF09E
:10115C008072084B5A60012380F82130002380F8FC
:10116C002030436B13B19847002008BD002008BD08
:10117C000800024000000240074AD36823F4E063F1
:10118C001B041B0C000200F4E060184340F0BF602D
:10119C0040F40030D060704700ED00E030B4164BE6
:1011AC00DB68C3F30223C3F10704042C28BF042417
:1011BC001D1D062D01D9DD1E00E00025012303FABB
:1011CC0004F4013C2140A940AB40013B1A400A43C6
:1011DC00002808DB1201D2B200F1604000F561403A
:1011EC0080F8002305E000F00F001201D2B2034B8F
:1011FC001A5430BC704700BF00ED00E014ED00E065
:10120C00002808DB420900F01F00012303FA00F05C
:10121C00014B43F82200704700E100E00138B0F1C7
:10122C00807F0AD2064B5860F021064A82F82310C0
:10123C000020986007221A6070470120704700BF99
:10124C0010E000E000ED00E0704700BF30B589B061
:10125C0000240494059406940794184B9A6942F060
:10126C0020029A619A6902F020020192019A9A690D
:10127C0042F008029A619A6902F008020292029AFC
:10128C009A6942F004029A619B6903F00403039388
:10129C00039B0B4D22464FF400412846FFF7F6FE08
:1012AC004FF4004304930123059306940223079300
:1012BC0004A92846FFF7FCFD09B030BD0010024020
:1012CC00000C014008B50A480A4B03604FF4E133A7
:1012DC00436000238360C36003610C22426183611D
:1012EC00C361FFF75FF808B1FEF738FF08BD00BF18
:1012FC002C0000200038014030B587B00023029349
:10130C0003930493059302681B4B9A4231D103F566
:10131C0058439A6942F480429A619A6902F4804275
:10132C000092009A9A6942F004029A619B6903F058
:10133C0004030193019B4FF4007302930223039364
:10134C00032305930D4D02A92846FFF7B1FD4FF479
:10135C008063029300240394049402A92846FFF7A7
:10136C00A7FD224621462520FFF718FF2520FFF771
:10137C0047FF07B030BD00BF0038014000080140F6
:10138C00FFF762FF0B480C490C4A002302E0D458CB
:10139C00C4500433C4188C42F9D3094A094C0023B5
:1013AC0001E013600432A242FBD300F00FF8FEF709
:1013BC0009FF7047000000200C000020801400087A
:1013CC000C00002074000020FEE700000E4B70B5EE
:1013DC001E460E4C0025E41AA410A54204D056F863
:1013EC00253098470135F8E700F01EF8084B094CFA
:1013FC001E46E41AA4100025A54204D056F8253048
:10140C0098470135F8E770BD781400087814000887
:10141C00781400087C14000803460244934202D05E
:10142C0003F8011BFAE77047F8B500BFF8BC08BC1D
:10143C009E467047F8B500BFF8BC08BC9E46704786
:10144C000102000002030405060708090A0B0C0D33
:10145C000E0F101000000000000000000102030439
:0C146C000607080900000000010203044C
:041478003101000836
:04147C000D01000856
:0C14800010000000010000000024F40037
:040000050800138D4F
:00000001FF
