:020000040800F2
:100000000050002065250008C9100008CD10000828
:10001000D1100008D5100008D91000080000000019
:10002000000000000000000000000000DD100008DB
:10003000E110000800000000E5100008E9100008C9
:10004000AD250008AD250008AD250008AD25000848
:10005000AD250008AD250008AD250008AD25000838
:10006000AD250008AD250008AD250008AD25000828
:10007000AD250008AD250008AD250008AD25000818
:10008000AD250008AD250008AD250008AD25000808
:10009000AD250008AD250008AD250008AD250008F8
:1000A000AD250008AD250008AD250008AD250008E8
:1000B000AD250008AD250008AD250008AD250008D8
:1000C000AD250008AD250008AD250008AD250008C8
:1000D000AD250008F1100008AD250008AD25000889
:1000E000AD250008AD250008AD2500080000000082
:1000F0000000000000000000000000000000000000
:0C01000000000000000000005FF808F1A3
:10010C0010B5054C237833B9044B13B10448AFF345
:10011C0000800123237010BD70000020000000003F
:10012C00E0260008084B10B51BB108490848AFF38E
:10013C0000800848036803B910BD074B002BFBD0A7
:10014C00BDE81040184700BF0000000074000020FC
:10015C00E0260008700000200000000003685A0030
:10016C004CBF43F0004323F000431844704700BFDA
:10017C0061B32DE9F84F01F1FF3A90460646D1469E
:10018C00002707EB090404EBD4746410E500711923
:10019C000846FFF7E3FFA245834605F1080030440B
:1001AC0009D0FFF7DBFFC34500F1FF3005D8404510
:1001BC0009D2671CE5E7C34505D9A74202D004F173
:1001CC00FF39DEE700210846BDE8F88F0846704786
:1001DC00012807D0022807D0044B00280CBF184672
:1001EC00002070470248704702487047F108000829
:1001FC00F5080008F908000830B5254B83B0044613
:10020C008D1E7BB301A92846AFF3008020B3019962
:10021C002A46FFF7ADFF0146F0B1FFF79FFF4B6891
:10022C00A064012B12D0002B01F1040021DBFFF79D
:10023C0095FF0023E06423650368002B1DDBFFF7AB
:10024C008DFF00232061184603B030BD00232361CD
:10025C000523184603B030BD00232361092318463B
:10026C0003B030BD0B490C4B0846591AC91001910B
:10027C00CEE70123E0642365DEE7C3F30360FFF7F9
:10028C00A7FF0028206114BF00230923DBE700BF70
:10029C00000000006C27000854280008036810B503
:1002AC00DA07044606D49B0700F1480009D500F094
:1002BC005BFC2368590709D51A070ED5DB0613D545
:1002CC0010BD00F049FC23685907F5D404F1D000A7
:1002DC0000F052FC23681A07F0D404F5A87000F063
:1002EC0053FC2368DB06EBD404F5E870BDE8104042
:1002FC0000F08EBC03680BB1184470471846704769
:10030C0009207047704700BF70B504460D4608E0E1
:10031C002A6C2369626121462A46012098470828E5
:10032C0008D1296C2046FFF767FF06460028EFD05E
:10033C0002F068F90728FBD13046296CFFF7E2FF81
:10034C00281D00F0FDFB00BF2DE9F0470646ADF57A
:10035C00727D03AD0C1D17460FCC0FC50FCC0FC50E
:10036C000FCC0FC594E80F0002ACD6F80C80D6F871
:10037C00189085E80F0000233046216C2360FFF7AE
:10038C003BFF0546002F14BF0A2709277DB1A36B3D
:10039C0047F010018DE810023246636401203346A9
:1003AC00C04778BB28460DF5727DBDE8F087236CFD
:1003BC004FF4F072736121467AA802F02AF933697E
:1003CC007AAA314638469847889B82468DE81002B7
:1003DC0039466364324633460120C04790B94FF426
:1003EC00F0727AA9204602F014F9BAF1080F06D17E
:1003FC00216C3046FFF700FF09270546C6E7BAF126
:10040C00070F04D009200DF5727DBDE8F087284652
:10041C00216CFFF777FF03A800F092FB406C70474C
:10042C00F0B5CB6BF9B00B640E1D01AD0F46044655
:10043C000FCE0FC50FCE0FC50FCE0FC596E80F0010
:10044C004FF0FF3685E80F00009606E023696A46F8
:10045C00214698470828054608D110992046FFF7F1
:10046C00CBFE0028F2D0092079B0F0BD6846FFF72A
:10047C0015FF062DF7D139462046FFF745FF00BF83
:10048C0030B4DD6BC160826119461D64002230BC42
:10049C005AE700BF70B54369C6680B6426B10122E8
:1004AC00FFF752FF02F0AEF803690A4604460D4608
:1004BC00014602209847072807D0082803D129466F
:1004CC002046FFF721FF02F09DF83046296CFFF71C
:1004DC0019FF281D00F034FBC2682AB110B4CC6B94
:1004EC0000220C6410BC2FE79AE700BF704700BFD6
:1004FC00836813B1014601201847704700B50429E1
:10050C0007D8DFE801F00309060909000BB90F2A27
:10051C0005D902205DF804FB01205DF804FB00EB1B
:10052C00820252681846019B1A605DF804FB00BFFA
:10053C0010B584B0002303AC0A4600941946FFF7AB
:10054C00DDFF039804B010BD00B5042907D8DFE81F
:10055C0001F00309060909000BB90F2A05D902207D
:10056C005DF804FB01205DF804FB019900EB8202AD
:10057C000968184651605DF804FB00BF10B584B0E3
:10058C0004AC44F8042D00230A4600941946FFF7E6
:10059C00DBFF04B010BD00BFF0B5D36BADF50F7D24
:1005AC001364151D17AC07460E460FCD0FC40FCDA7
:1005BC000FC40FCD0FC495E80F004FF0FF3584E842
:1005CC000F00169511E016A86A46FFF7D7FF3146C3
:1005DC0016A8B84780B9049B16AA69460820984704
:1005EC000528044609D0092806D026996846FFF745
:1005FC0003FE0C210028E6D0092416A8FFF74EFEB6
:10060C0020460DF50F7DF0BD2DE9F04FCC6C9146D9
:10061C0022688BB004340D460792089400F0030B4B
:10062C001E46002B64D11202032307928DF825601D
:10063C008DF824302B6DBBF1020F08BFAC6B13F09F
:10064C00010343D100F00800C2B203920193276862
:10065C00002F3DD0022E47D02788B4F802800434F6
:10066C00AB6C28F0010A0F2148469A44FFF760FF53
:10067C00824537D827F001039A4450452CBF0020FF
:10068C0001204FEA480808F0020807F0010748EA81
:10069C000708B8F1010F41D038D3B8F1020F1DD1C2
:1006AC00236823F000420292BBF1000F79D130B1E4
:1006BC000399002900F08180002A00F0A880002B0B
:1006CC0079DB029B013304EB8304C0E70023019325
:1006DC00022E40DDFFF714FE002842D009200BB09B
:1006EC00BDE8F08F0020CCE7D4F804800834B7E7DD
:1006FC00022B9FDC130CD9B212048DF82530022387
:10070C0004EB810407928DF8243093E7BBF1000FC2
:10071C0002D0002840F0B080043498E7BBF1000F01
:10072C0026D1B0B194E80C00991C4FEAD272D5D006
:10073C0005F158010133069100F09480201DFFF75C
:10074C00D9FD06AB01462846AFF30080002840F0E7
:10075C00B88008347BE707A9484600F0F3FA002874
:10076C00BCD1019B002B5CD108200BB0BDE8F08FF5
:10077C000D2148462F6AFFF7DBFE8742E9D1AB6AB1
:10078C009C42E6D12046FFF7E9FC0F210246484681
:10079C00FFF7F4FE48462A460021FFF7EFFE07203C
:1007AC009DE70D2148462F6AFFF7C2FE874248D0CD
:1007BC002368002B85DA043483E7029B3BB305F1F5
:1007CC005803271DCDF810B0DDF80C80A346DDF8DA
:1007DC0008A01C46059602E0B245B04616D0384635
:1007EC000694FFF787FD06AB014600222846AFF3BF
:1007FC00008008F1010604370028EDD0029B5C460E
:10080C004345DDF810B0059ED2D100E05C46484669
:10081C000D21FFF78DFE069B2862AC626B620620F1
:10082C005DE70F214846FFF783FE0E21024648463E
:10083C00FFF7A4FE48462A4A0F21FFF79FFE072028
:10084C004DE7AB6A9C42B3D1042202990027A3184E
:10085C00A962EF622A636B632368BB421FDB01232F
:10086C0001932EE748460D21FFF762FE2862069B96
:10087C006B62AC62062032E72046FFF76FFC043453
:10088C000646AC632846AFF3008000283FF426AF41
:10089C00484632460F21FFF771FE07201FE7084636
:1008AC00013004EB8000FFF759FC0F21024648464B
:1008BC00FFF764FE48462A463946FFF75FFE0720DD
:1008CC000DE707460D214846FFF732FE022F28623E
:1008DC00CDD12B46069A43F82C2F6B62C9E700BF8B
:1008EC000000000000238FE601238DE602238BE637
:1008FC00F0B50446C5B004290DD8DFE801F0570364
:10090C000C310F00012B4FEA124695B266D17219C9
:10091C00102A40F29F80022045B0F0BD002BFAD186
:10092C00102AF8D82368D80600F1C98022AE3046C8
:10093C00019200F077F9A06B019A0023012505FACA
:10094C0003F1114203D00168043046F8231001333F
:10095C00042BF4D1A063304600F05AF90020DBE7F9
:10096C00032BD8D1150C97B2EB19102BD3D82368C5
:10097C001E0700F1B88022AE30467F0000F026F949
:10098C0006EBC5027B1EA56B57B12946043A51F8FC
:10099C00040B013B42F8040F581CF8D105EB8705FA
:1009AC003046A56300F0F0F80020B5E7002BB2D17B
:1009BC00A56B97B2201D012606FA03F1394203F10B
:1009CC00010302D0296804350160102B00F10400EA
:1009DC00F2D112F400503BD1A5639DE7052B9AD1BF
:1009EC007719202F97D80F2E65D92F46002D48D177
:1009FC002A460027002AA06B71DD00EBC2020146DB
:100A0C0044A800EBC6008C3851F8045B914240F8C6
:100A1C00045FF9D1084697B13246102E44A938BF6D
:100A2C00102201EBC202A2F5C4727900043A00EB69
:100A3C00810150F8045B814242F8045FF9D1012B2B
:100A4C0047D00F2EA16332D917B102A800F094F849
:100A5C00002061E70F2E3FF65EAF00272268D1071A
:100A6C000DD522F00101052B21600193204652D0B7
:100A7C0022F0030240F8482B00F072F8019B002F83
:100A8C0051D02268510736D4012B3ED00F2E06D8F8
:100A9C0022A8019300F06CF8019B002FA8D002A8AB
:100AAC00019300F06DF8019BC6F11002A2E722A899
:100ABC0000F05AF8C8E7102FCFD9103FCEE723F03B
:100ACC001003236004F5E870019200F0ABF8019A72
:100ADC002CE70431A16322A800F03EF8B8E7002F00
:100AEC009AD10146ABE723F00803236004F5A87004
:100AFC0000F06CF83FE7204622F0040240F8D02BBF
:100B0C00019300F03DF8019BBEE722A8019300F091
:100B1C0027F8019BC8E741F0020140F8481B00F0A0
:100B2C0027F8019BABE7012B03D00F2E3FF660AFEC
:100B3C00AEE722A8019300F013F8019B58E700BF21
:100B4C0000F1340191E838009C46A6464CF8045D4F
:100B5C0090E8FF0FE54600BD90EC210B704700BFFD
:100B6C0080EC210B704700BF90EC200B704700BF4E
:100B7C0080EC200B704700BFD0EC200B704700BFFF
:100B8C00C0EC200B704700BFF0EC0201F0EC02113E
:100B9C00F0EC0221F0EC0231F0EC0241F0EC0251ED
:100BAC00F0EC0261F0EC0271F0EC0281F0EC0291DD
:100BBC00F0EC02A1F0EC02B1F0EC02C1F0EC02D1CD
:100BCC00F0EC02E1F0EC02F1704700BFE0EC020146
:100BDC00E0EC0211E0EC0221E0EC0231E0EC02412D
:100BEC00E0EC0251E0EC0261E0EC0271E0EC02811D
:100BFC00E0EC0291E0EC02A1E0EC02B1E0EC02C10D
:100C0C00E0EC02D1E0EC02E1E0EC02F1704700BF55
:100C1C00B0FC0181B0FC0191B0FC01A1B0FC01B1B0
:100C2C00704700BFA0FC0181A0FC0191A0FC01A1B8
:100C3C00A0FC01B1704700BFEC4600B52DE9005097
:100C4C002DE9FF1F4FF000032DE90C0001A9FFF760
:100C5C00E7FBDDF840E012B0704700BFEC4600B592
:100C6C002DE900502DE9FF1F4FF000032DE90C007A
:100C7C0001A9FFF70FFCDDF840E012B0704700BF90
:100C8C00EC4600B52DE900502DE9FF1F4FF0000395
:100C9C002DE90C0001A9FFF71FFCDDF840E012B0B4
:100CAC00704700BFEC4600B52DE900502DE9FF1F41
:100CBC004FF000032DE90C0001ABFFF7E1FBDDF871
:100CCC0040E012B0704700BFEC4600B52DE9005073
:100CDC002DE9FF1F4FF000032DE90C0001AAFFF7CF
:100CEC005BFCDDF840E012B0704700BF037A1BB923
:100CFC00437A43B9B02070475A1E036802721A0235
:100D0C000260180E70474268013B10B443721368BE
:100D1C000321141D01721A024460026010BC180EEB
:100D2C00704700BF00B585B003AA00230092194696
:100D3C000C22FFF7E3FB039805B05DF804FB00BF42
:100D4C00F0E700BF2DE9F04306460D4685B04FF0A5
:100D5C0000082846FFF7CAFFB028044600F0B4800C
:100D6C0020F07F0313F0FF0320D000F0F003802B62
:100D7C007AD0902B35D0A02B48D0B02B5CD0C02B88
:100D8C0000F0898000F0F803D02B0BD100F00702A3
:100D9C00013242F40022052301213046FFF7A8FD61
:100DAC000028D6D0092005B0BDE8F0830DF10C0960
:100DBC0019468700CDF800900D223046FFF79EFBB8
:100DCC00FFB2039B043760064CBFDF1BFF180023E8
:100DDC00CDF8009019460D2230460397FFF7B4FB6F
:100DEC00B7E700F00D030D2BDCD003AF002300F0B0
:100DFC000F02194600973046FFF780FB002300973F
:100E0C0019460D223046FFF79FFBA2E7C2434FF471
:100E1C007F6302F0070243FA02F2010702EA0302BF
:100E2C004FF0000348BF42F4804219463046FFF7AA
:100E3C005FFD0028B6D18CE7B1284AD0B22853D038
:100E4C00B32800F0818000F0FC03B42BAAD000F092
:100E5C0007020132012342F4002219463046FFF703
:100E6C0047FD00289ED174E72846FFF73FFF240278
:100E7C002043B0F5004F95D004010023A2B21946CF
:100E8C003046FFF735FD00288CD114F4004F18BF05
:100E9C004FF001085DE7C62862D0C7286CD000F07F
:100EAC00F803C02B7BD0C82800F09180C9287FF4B0
:100EBC0079AF2846FFF71AFF020300F00F0002F487
:100ECC0070220130024366E7B8F1000F6ED00020AB
:100EDC0069E72846FFF70AFF024600283FF462AF95
:100EEC0010F0F003B9D05DE700230DF10C090D22D1
:100EFC001946CDF800903046FFF700FB2846FFF767
:100F0C00F5FE02064FF002040CD5039B00F07F00A7
:100F1C00A040034428460393FFF7E8FE030604F1C0
:100F2C000704F2D4039B00F07F0000FA04F203F5EF
:100F3C00017400231444CDF8009019460D2230465C
:100F4C000394FFF701FB04E72846FFF7CFFE0103EC
:100F5C0000F00F0001F47021421C01230A437CE7CE
:100F6C002846FFF7C3FE010300F00F0001F47021C7
:100F7C00421C03230A4370E72846FFF7B7FE0246DC
:100F8C0000283FF40FAF10F0F0037FF40BAF0421F7
:100F9C003046FFF7ADFC00287FF404AFD9E600F033
:100FAC000F020132032342F4202256E703AC4346DE
:100FBC000E22414600943046FFF7A0FA00943046CA
:100FCC0043460F224146FFF7BFFA4046EBE6284660
:100FDC00FFF78CFE00F0F00200F00F03103201332B
:100FEC0043EA0232D7E600BF10B5C36C84B00320CD
:100FFC005A688DF80C00DC7912020833084601A9F6
:10100C0001928DF80D400293FFF79CFE04B010BDC9
:10101C0008B5FFF795FE806C08BD00BF08B5FFF75B
:10102C008FFEC36CD87903EB8000083008BD00BF7D
:10103C0008B501F0E7FA00BF08B5FFF7F9FF00BFEC
:10104C0072B6FEE700B591B02822002106A801F087
:10105C00CFFA002301930293039304930593012287
:10106C0006924FF4803307930A9202220D920E934C
:10107C004FF4E0130F9306A800F098FB08B1FFF7AC
:10108C00DFFF0F23019302210291002303934FF4FE
:10109C0080620492059301A800F0CCFD08B1FFF723
:1010AC00CFFF11B05DF804FB08B500F045FBFFF76E
:1010BC00C9FF01F06BF801F0A5F8FEE7FEE700BFF1
:1010CC00FEE700BFFEE700BFFEE700BFFEE700BF84
:1010DC00704700BF704700BF704700BF08B500F0F5
:1010EC003DFB08BD08B5024800F08EF908BD00BFF5
:1010FC00B400002082B00E4B9A6942F001029A6152
:10110C009A6902F001020092009ADA6942F0805268
:10111C00DA61DB6903F080530193019B054A536844
:10112C0023F0E06343F00073536002B0704700BFDC
:10113C000010024000000140026802F10C0353E869
:10114C00003F23F490730C3242E800310029F3D1B4
:10115C00026802F1140353E8003F23F00103143238
:10116C0042E800310029F3D1036B012B0BD102684B
:10117C0002F10C0353E8003F23F010030C3242E859
:10118C0000310029F3D1202380F84230002303637F
:10119C00704700BF90F84130DBB2212B27D1836818
:1011AC00B3F5805F0BD103694BB9036A02681B88E6
:1011BC00C3F308035360036A0233036205E0026859
:1011CC00036A591C01621B785360C38C9BB2013BB0
:1011DC009BB2C3846BB90268D36823F08003D360DD
:1011EC000268D36843F04003D360002070470220AC
:1011FC0070470020704700BF10B5044601680B69AA
:10120C0023F44052C36813430B618168036919438B
:10121C00436919430068C26822F4B05323F00C03ED
:10122C000B43C36021684B6923F44072A3691343D9
:10123C004B612268124B9A4202D100F0C9FD01E0C9
:10124C0000F0B6FD216800EB800000EB80006368C5
:10125C009B00B0FBF3F00B4BA3FB0024640964224E
:10126C0002FB140212013232A3FB02235B0903F0CE
:10127C00F00202EB041403F00F0323448B6010BD47
:10128C00003801401F85EB5170B310B5044690F83F
:10129C00413013F0FF0F04D1002380F8403000F0F0
:1012AC00CBFF242384F841302268D36823F4005305
:1012BC00D3602046FFF7A0FF2268136923F4904304
:1012CC0013612268536923F02A0353612268D3689F
:1012DC0043F40053D36000206064202384F8413031
:1012EC0084F84230606310BD01207047704700BF26
:1012FC0008B50168CB6823F04003CB60202380F84D
:10130C004130FFF7F3FF002008BD00BF704700BF5E
:10131C0008B5406A0023C385C384FFF7F7FF08BDF7
:10132C00704700BF00B583B090F84230DBB2222B7F
:10133C0063D18368B3F5805F0BD102694AB9826AC5
:10134C0003685B68C3F308031380836A0233836208
:10135C0012E0826AB3F5805F02D02BB903691BB926
:10136C0003685B68137004E003685B6803F07F0339
:10137C001370836A01338362C38D9BB2013B9BB2B2
:10138C00C385002B3BD10268D36823F02003D360C4
:10139C000268D36823F48073D3600268536923F026
:1013AC0001035361202380F8423000234363036B15
:1013BC00012B1ED100230363026802F10C0353E8D6
:1013CC00003F23F010030C3242E800310029F3D126
:1013DC0003681A6812F0100F06D0002201921A68E6
:1013EC0001925B680193019B818DFFF799FF0020AF
:1013FC0006E001F099F8002002E0022000E0002055
:10140C0003B05DF804FB00BF30B583B0044602683E
:10141C001368D068516913F00F0509D113F0200F30
:10142C0006D010F0200F03D02046FFF77BFF28E1F9
:10143C00002D70D011F0010102D110F4907F6AD010
:10144C0013F0010F06D010F4807F03D0626C42F0D1
:10145C000102626413F0040F04D019B1626C42F003
:10146C000202626413F0020F04D019B1626C42F0F4
:10147C000402626413F0080F07D010F0200F00D1A3
:10148C0019B1626C42F008026264626C002A00F0CE
:10149C00F88013F0200F05D010F0200F02D020465A
:1014AC00FFF740FF23685B6903F04003626C12F0A6
:1014BC00080F00D14BB32046FFF73EFE23685B6953
:1014CC0013F0400F1DD0226802F1140353E8003FC3
:1014DC0023F04003143242E800310029F3D1E36BCE
:1014EC005BB1694A5A63E06B00F09AFD002800F08A
:1014FC00C880E06B436B9847C3E02046FFF706FFBC
:10150C00BFE02046FFF702FFBBE02046FFF7FEFEE0
:10151C0000236364B5E0216B012940F09F8013F038
:10152C00100F00F09B8010F0100F00F0978000233C
:10153C0001931368019353680193019B536913F052
:10154C00400F51D0E26B13685B689BB2002B00F02C
:10155C009880A18D8B4280F09480E3859369202B39
:10156C0037D0226802F10C0353E8003F23F4807358
:10157C000C3242E800310029F3D1226802F1140345
:10158C0053E8003F23F00103143242E800310029F4
:10159C00F3D1226802F1140353E8003F23F0400317
:1015AC00143242E800310029F3D1202384F8423070
:1015BC0000232363226802F10C0353E8003F23F05D
:1015CC0010030C3242E800310029F3D1E06B00F03B
:1015DC0003FD02236363A38DE18D89B2591A89B28D
:1015EC002046FFF79DFE4CE0A38DE18D89B2591A80
:1015FC0089B2E38D9BB2002B43D0002941D02268E5
:10160C0002F10C0353E8003F23F490730C3242E8D0
:10161C0000300028F3D1226802F1140353E8003F94
:10162C0023F00103143242E800300028F3D12023C8
:10163C0084F8423000232363226802F10C0353E840
:10164C00003F23F010030C3242E800300028F3D1A5
:10165C00022363632046FFF763FE12E013F0800F52
:10166C0006D010F0800F03D02046FFF793FD08E062
:10167C0013F0400F05D010F0400F02D02046FFF7BA
:10168C0037FE03B030BD00BF1D1300088162828598
:10169C00C28500234364222380F84230036923B1BE
:1016AC000268D36843F48073D3600268536943F0D3
:1016BC00010353610268D36843F02003D360002018
:1016CC00704700BF08B590F84230DBB2202B06D132
:1016DC0039B142B100230363FFF7D8FF08BD0220E4
:1016EC0008BD012008BD012008BD00BF10B504468F
:1016FC000E4B18784FF47A73B3FBF0F30C4A106866
:10170C00B0FBF3F000F02AFD58B90F2C0BD80022D7
:10171C0021464FF0FF3000F0E1FC064B1C6000202E
:10172C0010BD012010BD012010BD00BF0400002021
:10173C00080000200000002008B5074A136843F099
:10174C0010031360032000F0B7FC0F20FFF7CEFF4F
:10175C00FFF7D0FC002008BD00200240034A1368AC
:10176C00034909780B441360704700BFB000002098
:10177C0004000020014B1868704700BFB000002027
:10178C0082B0084B1B68084AA2FB03235B0A00FBD0
:10179C0003F0019000BF019B5A1E0192002BF9D15E
:1017AC0002B0704708000020D34D6210002800F0F2
:1017BC00EC8170B582B00446036813F0010F6BD056
:1017CC00A84B5B6803F00C03042B0AD0A54B5B6899
:1017DC0003F00C03082B0DD1A24B5B6813F4803F74
:1017EC0008D0A04B1B6813F4003F55D06368002B46
:1017FC0052D1CCE16368B3F5803F05D1994A1368A7
:10180C0043F48033136026E063B903F1804303F59E
:10181C0004331A6822F480321A601A6822F4802287
:10182C001A6018E0B3F5A02F0CD103F18043A3F597
:10183C003C331A6842F480221A601A6842F48032EF
:10184C001A6008E0874B1A6822F480321A601A6812
:10185C0022F480221A6063687BB1FFF78BFF054688
:10186C0005E0FFF787FF401B642800F292817D4B57
:10187C001B6813F4003FF4D00EE0FFF77BFF054626
:10188C0005E0FFF777FF401B642800F28481754B5D
:10189C001B6813F4003FF4D1236813F0020F50D0EF
:1018AC00704B5B6813F00C0F0AD06E4B5B6803F047
:1018BC000C03082B16D16B4B5B6813F4803F11D1D2
:1018CC00684B1B6813F0020F03D02369012B40F007
:1018DC006481644A136823F0F803616943EAC10325
:1018EC0013602EE02369D3B101225F4B1A60FFF71E
:1018FC0041FF054605E0FFF73DFF401B022800F2C3
:10190C004E81584B1B6813F0020FF4D0554A1368E4
:10191C0023F0F803616943EAC103136011E000226C
:10192C00514B1A60FFF726FF054605E0FFF722FF33
:10193C00401B022800F235814A4B1B6813F0020F42
:10194C00F4D1236813F0080F29D0A369ABB101229D
:10195C00464B1A60FFF70EFF054605E0FFF70AFF3E
:10196C00401B022800F21F813E4B5B6A13F0020FF2
:10197C00F4D00120FFF704FF11E000223B4B1A606A
:10198C00FFF7F8FE054605E0FFF7F4FE401B0228C2
:10199C0000F20B81334B5B6A13F0020FF4D1236816
:1019AC0013F0040F00F08B802E4BDB6913F0805F7B
:1019BC000BD12C4BDA6942F08052DA61DB6903F00F
:1019CC0080530193019B012500E00025284B1B68E7
:1019DC0013F4807F13D1264A136843F48073136089
:1019EC00FFF7C8FE064605E0FFF7C4FE801B64281F
:1019FC0000F2DD801E4B1B6813F4807FF4D0E3688B
:101A0C00012B05D1174A136A43F00103136222E03C
:101A1C0063B903F1804303F504331A6A22F001021F
:101A2C001A621A6A22F004021A6214E0052B09D118
:101A3C000C4B1A6A42F004021A621A6A42F0010252
:101A4C001A6208E0074B1A6A22F001021A621A6A3B
:101A5C0022F004021A62E368D3B1FFF78BFE06464C
:101A6C0010E000BF001002400000424280044242DD
:101A7C0000700040FFF77EFE801B41F288339842D5
:101A8C0000F29780544B1B6A13F0020FF2D010E057
:101A9C00FFF770FE064607E0FFF76CFE801B41F275
:101AAC008833984200F287804B4B1B6A13F0020F6D
:101ABC00F2D125B1484AD36923F08053D361E3694D
:101ACC00002B7AD0444A526802F00C02082A4CD0FF
:101ADC00022B37D10022414B1A60FFF74BFE054613
:101AEC0004E0FFF747FE401B022868D83A4B1B68FE
:101AFC0013F0007FF5D1236AB3F5803F06D1364948
:101B0C004B6823F40032A36813434B60324843689C
:101B1C0023F47411236A626A13430B43436001225A
:101B2C002E4B1A60FFF726FE044604E0FFF722FE58
:101B3C00001B022845D8284B1B6813F0007FF5D0FA
:101B4C00002047E00022254B1A60FFF713FE0446E5
:101B5C0004E0FFF70FFE001B022834D81E4B1B6855
:101B6C0013F0007FF5D1002034E0012B2DD01A4B5F
:101B7C005B6803F48031226A914228D103F470131C
:101B8C00626A934225D0012024E001207047012095
:101B9C0020E003201EE003201CE001201AE00320BB
:101BAC0018E0032016E0032014E0032012E00320C9
:101BBC0010E003200EE003200CE000200AE00320DC
:101BCC0008E0032006E0032004E0012002E00120ED
:101BDC0000E0002002B070BD0010024060004242E4
:101BEC000F4B5B6803F00C02082A16D1C3F3834237
:101BFC000C49885C13F4803F0BD0094B5B68C3F332
:101C0C004043094AD25C094B03FB00F0B0FBF2F0F5
:101C1C007047074B03FB00F070470448704700BF48
:101C2C0000100240FC260008F826000800127A007A
:101C3C0000093D00002800F09D8070B50446544B0F
:101C4C001B6803F007038B420BD2514A136823F035
:101C5C0007030B431360136803F00703994240F02A
:101C6C008B80236813F0020F17D013F0040F04D0ED
:101C7C00484A536843F4E0635360236813F0080F39
:101C8C0004D0444A536843F460535360414843685A
:101C9C0023F0F002A368134343600D46236813F04E
:101CAC00010F2ED06268012A05D13A4B1B6813F440
:101CBC00003F0DD162E0022A05D1364B1B6813F0B0
:101CCC00007F05D15CE0334B1B6813F0020F59D039
:101CDC0030494B6823F0030313434B60FFF74AFD75
:101CEC00064606E0FFF746FD801B41F2883398421A
:101CFC004AD8284B5B6803F00C036268B3EB820F85
:101D0C00F0D1234B1B6803F007039D420AD2204AF3
:101D1C00136823F007032B431360136803F00703C6
:101D2C009D4233D1236813F0040F06D019494B6838
:101D3C0023F4E062E36813434B60236813F0080F4D
:101D4C0007D0144A536823F46053216943EAC10352
:101D5C005360FFF745FF0F4B5B68C3F303130E4A49
:101D6C00D35CD8400D4B18600D4B1868FFF7BEFCC8
:101D7C00002070BD01207047012070BD012070BD96
:101D8C00012070BD012070BD032070BD012070BD0D
:101D9C0000200240001002400C2700080800002020
:101DAC0000000020014B1868704700BF080000209D
:101DBC0008B5FFF7F7FF044B5B68C3F30223034A34
:101DCC00D35CD84008BD00BF001002401C2700089F
:101DDC0008B5FFF7E7FF044B5B68C3F3C223034A64
:101DEC00D35CD84008BD00BF001002401C2700087F
:101DFC00F0B583B000263446D4E00122A240134053
:101E0C009A4240F0CE804D68122D2DD00BD8022D69
:101E1C0027D003D85DB3012D1ED035E0032D30D073
:101E2C00112D1BD030E0634FBD4220D008D8A7F550
:101E3C008017BD421BD007F58037BD4224D116E078
:101E4C005D4FBD4213D007F58037BD420FD0A7F5CB
:101E5C008017BD4218D10AE0CE6815E0CE68043672
:101E6C0012E0CE6808360FE0CE680C360CE08D68B8
:101E7C004DB1012D02D10261082605E04261082610
:101E8C0002E0002600E00426FF2B01D8864601E084
:101E9C0000F1040EFF2B01D8A20002E0A4F108020D
:101EAC009200DEF800700F25954027EA050506FA2A
:101EBC0002F22A43CEF800204A6812F0805F70D0FC
:101ECC003E4A956945F001059561926902F001025F
:101EDC000192019AA708BD1C394A52F8255004F00A
:101EEC00030292004FF00F0E0EFA02FE25EA0E0EC0
:101EFC00344DA8420DD005F58065A8420BD005F5F0
:101F0C008065A84209D005F58065A84207D1032554
:101F1C0006E0002504E0012502E0022500E004258E
:101F2C0005FA02F24EEA02020237254D45F8272047
:101F3C004A6812F4801F05D005F58065AA681A431B
:101F4C00AA6004E0204DAA6822EA0302AA604A684B
:101F5C0012F4001F04D01C4DEA681A43EA6004E036
:101F6C00194DEA6822EA0302EA604A6812F4003F5B
:101F7C0004D0154D6A681A436A6004E0124D6A6811
:101F8C0022EA03026A604A6812F4803F04D00E4DC4
:101F9C002A6813432B6004E00B4D2A6822EA0303E2
:101FAC002B6001340B6833FA04F27FF426AF03B0D4
:101FBC00F0BD00BF000021100000311000100240E5
:101FCC000000014000080140000401400AB1016119
:101FDC00704709040161704790F82130DBB2022B85
:101FEC0006D004238363002380F82030012070473F
:101FFC000268136823F00E0313600268136823F061
:10200C0001031360C16B036C012202FA03F34B60F2
:10201C0080F82120002380F820301846704700BF3C
:10202C0008B590F82130DBB2022B03D00423836374
:10203C00012008BD0268136823F00E0313600268C8
:10204C00136823F0010313600368194A934211D0FB
:10205C001432934210D0143293420FD01432934264
:10206C000FD0143293420FD0143293420FD14FF44D
:10207C0080120EE001220CE010220AE04FF4807274
:10208C0007E04FF4805204E04FF4803201E04FF04F
:10209C008072084B5A60012380F82130002380F8AD
:1020AC002030436B13B19847002008BD002008BDB9
:1020BC000800024000000240074AD36823F4E063A2
:1020CC001B041B0C000200F4E060184340F0BF60DE
:1020DC0040F40030D060704700ED00E030B4164B97
:1020EC00DB68C3F30223C3F10704042C28BF0424C8
:1020FC001D1D062D01D9DD1E00E00025012303FA6C
:10210C0004F4013C2140A940AB40013B1A400A4376
:10211C00002808DB1201D2B200F1604000F56140EA
:10212C0080F8002305E000F00F001201D2B2034B3F
:10213C001A5430BC704700BF00ED00E014ED00E015
:10214C00002808DB420900F01F00012303FA00F00D
:10215C00014B43F82200704700E100E00138B0F178
:10216C00807F0AD2064B5860F021064A82F8231071
:10217C000020986007221A6070470120704700BF4A
:10218C0010E000E000ED00E0704700BF30B589B012
:10219C0000240494059406940794184B9A6942F011
:1021AC0020029A619A6902F020020192019A9A69BE
:1021BC0042F008029A619A6902F008020292029AAD
:1021CC009A6942F004029A619B6903F00403039339
:1021DC00039B0B4D22464FF400412846FFF7F6FEB9
:1021EC004FF40043049301230593069402230793B1
:1021FC0004A92846FFF7FCFD09B030BD00100240D1
:10220C00000C014008B50A480A4B03604FF4E13357
:10221C00436000238360C36003610C2242618361CD
:10222C00C361FFF731F808B1FEF70AFF08BD00BF24
:10223C00B40000200038014030B587B00023029371
:10224C0003930493059302681B4B9A4231D103F517
:10225C0058439A6942F480429A619A6902F4804226
:10226C000092009A9A6942F004029A619B6903F009
:10227C0004030193019B4FF4007302930223039315
:10228C00032305930D4D02A92846FFF7B1FD4FF42A
:10229C008063029300240394049402A92846FFF758
:1022AC00A7FD224621462520FFF718FF2520FFF722
:1022BC0047FF07B030BD00BF0038014000080140A7
:1022CC000023074A1370074A1370074A13701D2B1B
:1022DC0005D80021054AD1540133DBB2F7E770472A
:1022EC00AE000020AB000020AA0000208C000020D3
:1022FC0008B5012202490348FFF7E4F908BD00BF05
:10230C008C000020B400002008B5574B1B78BB2B69
:10231C0013D1564B1B7883B9554B1B786BB90121E4
:10232C00524A11700B44DBB2514A137004224E49CD
:10233C0019445048FFF7C6F908BD4C4B1B78002BCD
:10234C0044D04B4A1178012940D10431C9B21170E3
:10235C00454B1B79112B34D8DFE803F00910171EFD
:10236C00333333333333332533333333332C022288
:10237C003D4B19443F48FFF7A5F908BD03223A4BE2
:10238C0019443C48FFF79EF908BD0422364B19440A
:10239C003848FFF797F908BD0522334B19443548E7
:1023AC00FFF790F908BD0D222F4B19443148FFF768
:1023BC0089F908BD13222C4B19442E48FFF782F9DA
:1023CC0008BDFFF77DFFFFF793FF08BD002B41D041
:1023DC00274A1278052A3DD1234B1B79112B34D86F
:1023EC00DFE803F00910171E33333333333333254F
:1023FC0033333333332C02321D4B1A7001221E4BF4
:10240C001A7008BD03321A4B1A7001221A4B1A703B
:10241C0008BD0432164B1A700122174B1A7008BDF6
:10242C000532134B1A700122134B1A7008BD0D3272
:10243C000F4B1A700122104B1A7008BD13320C4B43
:10244C001A7001220C4B1A7008BDFFF739FFFFF709
:10245C004FFF08BD13B1084B1B781BB9FFF730FFBA
:10246C00FFF746FF08BD00BF8C000020AE00002027
:10247C00AB000020B4000020AA00002010B44318C8
:10248C0013F8023C4A1E825C7E2A15D101228C1E56
:10249C00A24204D2845C1B1BDBB20132F7E76BB99E
:1024AC008378FF2B0CD14379152B0BD0172B01D133
:1024BC00032008E0052006E0012004E0022002E0F1
:1024CC00002000E00420F8B1431E042B1CD8DFE8E8
:1024DC0003F003080D1217000C4A13880133138004
:1024EC0012E00A4A1388013313800DE0074A13885F
:1024FC000133138008E0054A13880133138003E08D
:10250C00024A13880133138010BC7047AC000020C2
:10251C0008B54378022B05D0012B03D0FFF7D0FE72
:10252C00FFF7E6FE08BD00BF08B5FFF7EDFE074B51
:10253C001B7853B1064B19780648FFF79FFF20B95B
:10254C00034B19780348FFF7E3FF08BDAA000020EE
:10255C00AB0000208C000020FFF716FE0B480C4946
:10256C000C4A002302E0D458C4500433C4188C42E3
:10257C00F9D3094A094C002301E013600432A2424A
:10258C00FBD300F00FF8FEF78FFD70470000002022
:10259C00700000205C280008700000200001002062
:1025AC00FEE700000E4B70B51E460E4C0025E41ADB
:1025BC00A410A54204D056F8253098470135F8E709
:1025CC0000F088F8084B094C1E46E41AA4100025AC
:1025DC00A54204D056F8253098470135F8E770BD70
:1025EC0054280008542800085428000858280008CB
:1025FC0003460244934202D003F8011BFAE77047EA
:10260C00FEE700BF08B5062000F038F80120FFF700
:10261C00F7FF10B5431E0A44914204D011F8014B48
:10262C0003F8014FF8E710BD1F2938B504460D46D5
:10263C0004D9162303604FF0FF3038BD426C12B141
:10264C0052F821304BB9204600F032F82A460146A8
:10265C002046BDE8384000F019B8012B0CD0591CAD
:10266C0003D116230360012038BD0024284642F80C
:10267C0025409847204638BD002038BD024B014606
:10268C001868FFF7D1BF00BF6C00002038B5074CAD
:10269C000023054608461146236000F013F8431C3E
:1026AC0002D1236803B12B6038BD00BFFC000020B1
:1026BC0000F000B8024B58221A604FF0FF30704700
:1026CC00FC000020024B58221A604FF0FF3070477C
:1026DC00FC000020F8B500BFF8BC08BC9E46704753
:0C26EC00F8B500BFF8BC08BC9E46704763
:1026F8000102000002030405060708090A0B0C0D75
:102708000E0F10100000000000000000010203047A
:0C2718000607080900000000010203048D
:1027240008B10181B0B000840000000008B101814B
:10273400B0B000840000000008B10181B0B0008492
:102744000000000008B10181B0B000840000000066
:1027540008B10181B0B000840000000008B101811B
:08276400B0B000840000000089
:10276C00FCD9FF7F0100000090DAFF7FB0A9028046
:10277C002CDBFF7FB0B0A8807CDBFF7F010000006A
:10278C0088DBFF7FB0B0AA80C0DBFF7FAE71B28068
:10279C008CDCFF7F0100000088DCFF7FAB3F3880C2
:1027AC00E0DCFF7F01000000ECDCFF7FB0B0AA8012
:1027BC0028DDFF7F01000000E0DDFF7FAB0EB28063
:1027CC0048DEFF7FB0AF0A801CE1FF7F01000000F4
:1027DC0020E1FF7FAB3F048068E3FF7F0100000036
:1027EC0044E5FF7F0084048058E5FF7F0100000072
:1027FC0054E5FF7FB0AD0480F0E7FF7FB0A8038005
:10280C0010E8FF7F44FFFF7F14E8FF7F48FFFF7F46
:10281C0020E8FF7F01000000D8FAFF7FFCFEFF7F5D
:10282C00E8FAFF7F00FFFF7F54FCFF7F01000000F0
:10283C00E0FCFF7FFCFEFF7FF0FCFF7F00FFFF7FD3
:08284C0018FDFF7F01000000F0
:042854003101000846
:042858000D01000866
:10285C0010000000010000000024F4000000000043
:10286C00000000000000000000000000000000005C
:10287C00000000000000000000000000000000004C
:10288C00000000000000000000000000000000003C
:10289C00000000000000000000000000000000002C
:1028AC00000000000000000000000000000000001C
:1028BC000000000000000000000000000C000020E0
:040000050800256565
:00000001FF
